S0150000486569737365722044726168742E7372656329
S11300000C94B4000C94D1000C94D1000C94D10045
S11300100C94D1000C94D1000C94D1000C940102E6
S11300200C94D1000C94D1000C94D1000C948E014A
S11300300C94D1000C94D1000C94D1000C94D100F8
S11300400C94D1000C94D1000C94D1000C94D100E8
S11300500C94D1000C94D1000C94D1000C94D100D8
S11300600C94D1000C94D100000306090C0F121556
S1130070181C1F2225282B2E303336393C3F41448F
S113008047494C4E515355585A5C5E6062646668E9
S11300906A6C6D6F70727375767778797A7B7C7C15
S11300A07D7E7E7F7F7F7F7F7F7F7F7F7F7F7E7E62
S11300B07D7C7C7B7A79787776757372706F6D6CE2
S11300C06A68666462605E5C5A585553514E4C4986
S11300D04744413F3C393633302E2B2825221F1C00
S11300E01815120F0C09060300FDFAF7F4F1EEEBF4
S11300F0E8E4E1DEDBD8D5D2D0CDCAC7C4C1BFBCE9
S1130100B9B7B4B2AFADABA8A6A4A2A09E9C9A986E
S113011096949391908E8D8B8A8988878685848422
S113012083828281818181818081818181818282B6
S113013083848485868788898A8B8D8E9091939415
S113014096989A9C9EA0A2A4A6A8ABADAFB2B4B751
S1130150B9BCBFC1C4C7CACDD0D2D5D8DBDEE1E4B7
S1130160E8EBEEF1F4F7FAFD11241FBECFEFD8E06F
S1130170DEBFCDBF11E0A0E0B1E0E0E5F4E002C0F5
S113018005900D92A430B107D9F721E0A4E0B1E0C5
S113019001C01D92AF32B207E1F70E94FD000C943A
S11301A026020C940000409A8CE09FEF9EBD0DB493
S11301B007FEFDCF8150D1F7419A88B1827088B98A
S11301C0409888E11EBC0DB407FEFDCF8150D1F7E5
S11301D0419A88B1827088B90895E3E1F1E0819190
S11301E08EBD0DB407FEFDCF81E0EB32F807B9F701
S11301F0419A88B1827088B9089585E284B98FE103
S113020087B982E68AB915B818B81BB883EA84BDE1
S113021021E025BD8FE787BD88BD1092800089E06D
S11302208093810082E896E090938900809388000F
S113023082E080936F008093B00097E09093B100C8
S11302409CE99093B300809370001092C00088E9F9
S11302508093C10086E08093C20083E390E0909392
S1130260C5008093C40080E58CBD2DBD1EBC85E017
S113027080937C0080EC80937A0080917A0086FDE4
S1130280FCCF809178009091790010922B0110920C
S11302902C0110922D0110922E0188E1E3E1F1E08E
S11302A0DF011D928A95E9F70E94D300789431E02A
S11302B040EC22E04A9925C010920C01449A4093E4
S11302C07A0080917A0086FDFCCF8091780090912D
S11302D079009695879596958795893C18F01092A4
S11302E0020102C02093020110920E0110920D012E
S11302F010920F011092100110921101109212012C
S113030006C080910C01823011F030930C014B999E
S113031003C020930C01CECF89B1CCCF1F920F9292
S11303200FB60F9211242F933F934F935F936F93C4
S11303307F938F939F93AF93BF93CF93EF93FF9349
S113034080910101882321F08150809301010EC026
S1130350429A82E080930101C0910001C11102C060
S11303600E94ED00C150C09300014298E0910A013F
S1130370F0910B018091060190910701E80FF91F9C
S1130380F0930701E09306012091080130910901DF
S11303908091040190910501820F931F90930501B0
S11303A080930401EF2FFF27E859FF4FE491FF27C3
S11303B0E7FDF095FE5FF595E795F595E795E7BDC3
S11303C0E0910501F0E0E859FF4FE491FF27E7FDD4
S11303D0F095FE5FF595E795F595E795E8BDFF91F6
S11303E0EF91CF91BF91AF919F918F917F916F9139
S11303F05F914F913F912F910F900FBE0F901F90DF
S113040018951F920F920FB60F9211248F939F93FA
S1130410AF93BF9380912B0190912C01A0912D015A
S1130420B0912E010196A11DB11D80932B019093D3
S11304302C01A0932D01B0932E01BF91AF919F91F8
S11304408F910F900FBE0F901F901895F894FFCFC7
S1070450FF020100A2
S9030000FC
